:100000000C942A000C9447000C9447000C94470071
:100010000C9447000C9447000C9447000C94470044
:100020000C9447000C9447000C94C3000C944700B8
:100030000C9447000C9447000C9447000C94470024
:100040000C9447000C9447000C9447000C94470014
:100050000C94470011241FBECFE5D8E0DEBFCDBF12
:1000600010E0A0E6B0E0EAE5F4E002C005900D92F1
:10007000AA38B107D9F720E0AAE8B0E001C01D9284
:10008000AE38B207E1F70E9478010C942B020C9471
:10009000000087B3807E87BB88B38F6188BB0895DB
:1000A000833039F170F48130D1F08230D1F58FE3B3
:1000B0009CE90197F1F700C0000086B38695817036
:1000C0002DC0843009F1853061F58FE39CE90197FB
:1000D000F1F700C0000086B3829581701FC08FE3E6
:1000E0009CE90197F1F700C0000086B3809581700C
:1000F00008958FE39CE90197F1F700C0000086B3F3
:1001000082FB882780F90AC08FE39CE90197F1F709
:1001100000C0000086B383FB882780F991E089271F
:10012000089580E00895009741F0EFECF7E03197F3
:10013000F1F700C000000197F6CF08958AB38F60F1
:100140008ABB8BB38F608BBB84B38FEF84BB85BBC3
:1001500083B7886083BF86E28CBF83B7856083BF27
:1001600089B7826089BF08951ABA1BBA14BA15BA42
:1001700083B7877F83BF1CBE83B78A7F83BF89B75E
:100180008D7F89BF08951F920F920FB60F92112491
:100190008F93EF93FF938091600080958BBB80914C
:1001A0006000813019F4E0918D000EC0823019F4A6
:1001B000E0918B0009C0843019F4E0918C0004C0F8
:1001C000883041F4E0918A00F0E0EF59FF4F8081E0
:1001D000809585BB80916000880F893008F081E0B0
:1001E00080936000FF91EF918F910F900FBE0F9061
:1001F0001F9018954F925F926F927F928F929F926D
:10020000AF92BF92CF92DF92EF92FF92615071094D
:10021000810991096F3077428105910508F055C039
:100220002A01440C551C440C551C612C712C98EE71
:10023000C92E93E0D92EE12CF12CC301B201A70104
:1002400096010E9409024B015C01C301B2016819C9
:1002500079098A099B09A70196010E940902209346
:100260008D0024E6422E512C612C712CC501B40165
:10027000A30192010E9409026B017C01C501B40136
:100280006C197D098E099F09A30192010E94090240
:1002900020938B003AE0432E512C612C712CC70126
:1002A000B601A30192010E9409024B015C01C70142
:1002B000B601681979098A099B09A30192010E9474
:1002C000090220938C0080928A00FF90EF90DF90CB
:1002D000CF90BF90AF909F908F907F906F905F90E6
:1002E0004F90089581B38FEF81BB92B382BB089585
:1002F000CF93DF93CDB7DEB76E970FB6F894DEBF1E
:100300000FBECDBF8EE1EBE6F0E0DE01119601906D
:100310000D928A95E1F70E9472010E94490078943B
:100320000E949E004CE251E068EE73E080E090E0B5
:100330000E94FA000FEF81E00E945000811106C078
:1003400082E00E945000811128C021C002BB81E0E0
:100350000E9450008823A1F38FEC97E00197F1F7FA
:1003600000C00000F4CF1695812F809582BB9FE7D7
:1003700028E381E0915020408040E1F700C0000078
:10038000123088F781E00E945000882339F083E022
:100390000E94500081111EC011C011E017FDE3CF73
:1003A000110F812F809582BB9FE728E381E0915058
:1003B00020408040E1F700C00000F0CF84E00E94C0
:1003C000500085E00E945000882309F4B4CF0E94B9
:1003D000B400B1CF80E011E0180FE1E0F0E0EC0FE5
:1003E000FD1FE80FF11D8081809582BB9FE728E308
:1003F00081E0915020408040E1F700C000001E31B4
:1004000009F410E081E00E9450008111D7CF812FC4
:10041000E2CFA1E21A2EAA1BBB1BFD010DC0AA1F31
:10042000BB1FEE1FFF1FA217B307E407F50720F05D
:10043000A21BB30BE40BF50B661F771F881F991FD8
:100440001A9469F760957095809590959B01AC0121
:0A045000BD01CF010895F894FFCF1D
:10045A00013F065B4F666D7D077F6F0103070F1F24
:10046A003F7FFFFEFCF8F0E0C08080C0E0F0F8FCBF
:0A047A00FEFF7F3F1F0F0703010084
:00000001FF
