:100000000C942F000C944C000C944C000C944C005D
:100010000C944C000C944C000C944C000C944C0030
:100020000C944C000C944C000C9463010C944C0008
:100030000C944C000C944C000C944C000C944C0010
:100040000C944C000C944C000C944C000C944C0000
:100050000C944C00C0F9A4B0999282F880901124BD
:100060001FBECFE5D8E0DEBFCDBF10E0A0E6B0E018
:10007000EAE8F4E002C005900D92A038B107D9F784
:1000800020E0A0E8B0E001C01D92A438B207E1F77B
:100090000E949F010C9443020C94000087B3807E61
:1000A00087BB88B38F6188BB0895833039F170F4C2
:1000B0008130D1F08230D1F58FE39CE90197F1F7DF
:1000C00000C0000086B3869581702DC0843009F190
:1000D000853061F58FE39CE90197F1F700C00000DE
:1000E00086B3829581701FC08FE39CE90197F1F779
:1000F00000C0000086B38095817008958FE39CE96D
:100100000197F1F700C0000086B382FB882780F9D1
:100110000AC08FE39CE90197F1F700C0000086B3A5
:1001200083FB882780F991E08927089580E008956E
:100130008AB38F608ABB8BB38F608BBB84B38FEF26
:1001400084BB85BB83B7886083BF86E28CBF83B7DF
:10015000856083BF89B7826089BF08951ABA1BBAC8
:1001600014BA15BA83B7877F83BF1CBE83B78A7F53
:1001700083BF89B78D7F89BF0895CF93DF93883E72
:1001800023E0920738F44AE0489F9001499F300DE0
:10019000112402C02FE037E2C8EED3E0C901BE014E
:1001A0000E942F02FC01C9018E1B9F0BBE010E9401
:1001B0002F0260938300C4E6D0E0CF01BE010E940D
:1001C0002F029C01CF01821B930BBE010E942F02C4
:1001D00060938100EAE0F0E0C901BF010E942F02B4
:1001E000AC01C901841B950BBF010E942F026093D3
:1001F00082004093800099E0809183008091830089
:100200008F3F61F580918100893041F580918200B6
:10021000893021F580918000893001F510928000AD
:10022000109282001092810010928300DF91CF9192
:100230000895809182008930C1F080918200809180
:1002400082008F3F61F580918000893041F5809375
:100250008200809181008150809381008091810093
:10026000809181008F3F49F7E4CF809180008930F1
:1002700021F78093810080918300815080938300D7
:10028000BBCF3FEF80E722E0315080402040E1F7D4
:1002900000C0000080918000815080938000809198
:1002A0008000809180008F3F61F790938000809163
:1002B0008200815080938200C0CF81B38FEF81BBD9
:1002C00092B382BB08951F920F920FB60F92112422
:1002D0008F939F93EF93FF939BB3809160008095E2
:1002E0008F70907F892B8BBB80916000813019F4D7
:1002F000E09183000EC0823019F4E091810009C0C2
:10030000843019F4E091820004C0883039F4E0911F
:100310008000F0E0EC5AFF4FE491E5BB8091600073
:10032000880F893008F081E080936000FF91EF91A1
:100330009F918F910F900FBE0F901F901895CF93A4
:10034000DF93CDB7DEB76E970FB6F894DEBF0FBE62
:10035000CDBF8EE1E1E6F0E0DE01119601900D9255
:100360008A95E1F70E945D010E944E0078940FEF9C
:1003700081E00E945500811106C082E00E94550074
:10038000811128C021C002BB81E00E945500882352
:10039000A1F38FEC97E00197F1F700C00000F4CFD4
:1003A0001695812F809582BB9FE728E381E09150CD
:1003B00020408040E1F700C00000123088F781E063
:1003C0000E945500882339F083E00E945500811176
:1003D0001EC011C011E017FDE3CF110F812F8095D2
:1003E00082BB9FE728E381E0915020408040E1F705
:1003F00000C00000F0CF84E00E945500882331F156
:100400000E9498008CE390E00E94BD001FC080E035
:1004100011E0180FE1E0F0E0EC0FFD1FE80FF11D17
:100420008081809582BB9FE728E381E09150204046
:100430008040E1F700C000001E3109F410E081E0C7
:100440000E9455008111D7CF812FE2CF85E00E9415
:100450005500882309F48CCF0E94AE0089CFAA1BD7
:10046000BB1B51E107C0AA1FBB1FA617B70710F09F
:10047000A61BB70B881F991F5A95A9F780959095D1
:0A048000BC01CD010895F894FFCFF0
:10048A00010103070F1F3F7FFFFEFCF8F0E0C08069
:10049A0080C0E0F0F8FCFEFF7F3F1F0F070301005A
:00000001FF
