:100000000C9434000C9451000C9451000C94510049
:100010000C9451000C9451000C9451000C9451001C
:100020000C9451000C9451000C9437020C94510024
:100030000C9451000C9451000C9451000C945100FC
:100040000C9451000C9451000C9451000C945100EC
:100050000C945100BEBAAAA2BC9C94F5F6B6C0F9A5
:10006000A4B0999282F8809011241FBECFE5D8E009
:10007000DEBFCDBF10E0A0E6B0E0E4E3F5E002C0F3
:1000800005900D92A236B107D9F720E0A2E6B0E0C4
:1000900001C01D92A636B207E1F70E9473020C94CC
:1000A00098020C94000087B3807E87BB88B38F6171
:1000B00088BB0895833039F170F48130D1F08230FB
:1000C000D1F58FE39CE90197F1F700C0000086B3FA
:1000D000869581702DC0843009F1853061F58FE3FC
:1000E0009CE90197F1F700C0000086B3829581700A
:1000F0001FC08FE39CE90197F1F700C0000086B3B1
:100100008095817008958FE39CE90197F1F700C015
:10011000000086B382FB882780F90AC08FE39CE940
:100120000197F1F700C0000086B383FB882780F9B0
:1001300091E08927089580E008958AB38F608ABB93
:100140008BB38F608BBB84B38FEF84BB85BB83B7CE
:10015000886083BF86E28CBF83B7856083BF89B721
:10016000826089BF08951ABA1BBA14BA15BA83B748
:10017000877F83BF1CBE83B78A7F83BF89B78D7F8C
:1001800089BF0895CF93DF93883E23E0920738F428
:100190004AE0489F9001499F300D112402C02FE092
:1001A00037E2C8EED3E0C901BE010E948402FC011F
:1001B000C9018E1B9F0BBE010E94840260936500E3
:1001C000C4E6D0E0CF01BE010E9484029C01CF01B1
:1001D000821B930BBE010E94840260936300EAE0DD
:1001E000F0E0C901BF010E948402AC01C901841B77
:1001F000950BBF010E9484026093640040936200EB
:1002000099E080916500809165008F3F51F5809164
:100210006300893031F580916400893011F5809157
:1002200062008930F1F41092620010926400109222
:1002300063001092650046C0809164008930C1F06F
:1002400080916400809164008F3F71F5809162001D
:10025000893051F5809364008091630081508093D0
:10026000630080916300809163008F3F49F7E4CF82
:1002700080916200893021F780936300809165004E
:10028000815080936500BDCF3FEF80E722E0315081
:1002900080402040E1F700C00000B09B13C0809177
:1002A00062008150809362008091620080916200C0
:1002B0008F3F51F79093620080916400815080934A
:1002C0006400BECF7091650060916300509164003E
:1002D0004091620028EE33E0729FC001739F900D41
:1002E000112434E6639F800D911D11242AE0529F52
:1002F000800D911D1124840F911DDF91CF910895E0
:10030000CF93DF93EC0128EE33E0B9010E94840221
:10031000FC01CE018E1B9F0BB9010E9484026093E9
:100320006500C4E6D0E0CF01BE010E9484029C01BA
:10033000CF01821B930BBE010E9484026093630075
:10034000EAE0F0E0C901BF010E948402AC01C901EA
:10035000841B950BBF010E9484026093640040934C
:10036000620099E080916500809165008F3F51F5B2
:1003700080916300893031F580916400893011F5F6
:10038000809162008930F1F4109262001092640052
:10039000109263001092650046C08091640089301D
:1003A000C1F080916400809164008F3F71F580916D
:1003B0006200893051F58093640080916300815020
:1003C0008093630080916300809163008F3F49F7C1
:1003D000E4CF80916200893021F78093630080919F
:1003E0006500815080936500BDCF2FEF30E782E03C
:1003F000215030408040E1F700C00000B09B13C0A6
:1004000080916200815080936200809162008091AF
:1004100062008F3F51F79093620080916400815099
:1004200080936400BECF709165006091630050912D
:1004300064004091620028EE33E0729FC001739F18
:10044000900D112424E6629F800D911D11243AE045
:10045000539F800D911D1124840F911DDF91CF9129
:10046000089581B38FEF81BB92B382BB08951F9231
:100470000F920FB60F9211248F939F93EF93FF93D8
:100480009BB38091600080958F70907F892B8BBB90
:1004900080916000813019F4E09165000EC08230D7
:1004A00019F4E091630009C0843019F4E09164000C
:1004B00004C0883039F4E0916200F0E0EC5AFF4F5C
:1004C000E491E5BB80916000880F893008F081E0FD
:1004D00080936000FF91EF919F918F910F900FBEDD
:1004E0000F901F9018950E9431020E9453000E94A5
:1004F0009D00789488E592E00E94C200009719F070
:100500000E948001FBCFFFCFAA1BBB1B51E107C09C
:10051000AA1FBB1FA617B70710F0A61BB70B881F93
:10052000991F5A95A9F780959095BC01CD01089522
:04053000F894FFCF6D
:020534000100C4
:00000001FF
